{"contracts/logicBasedAutomation2.sol":{"BalancerOffChain2":{"abi":[{"inputs":[],"stateMutability":"nonpayable","type":"constructor"},{"inputs":[],"name":"LIMIT","outputs":[{"internalType":"uint256","name":"","type":"uint256"}],"stateMutability":"view","type":"function"},{"inputs":[],"name":"SIZE","outputs":[{"internalType":"uint256","name":"","type":"uint256"}],"stateMutability":"view","type":"function"},{"inputs":[{"internalType":"uint256","name":"liq","type":"uint256"}],"name":"addLiquidity","outputs":[],"stateMutability":"nonpayable","type":"function"},{"inputs":[{"internalType":"uint256","name":"","type":"uint256"}],"name":"balances","outputs":[{"internalType":"uint256","name":"","type":"uint256"}],"stateMutability":"view","type":"function"},{"inputs":[{"internalType":"bytes","name":"checkData","type":"bytes"}],"name":"checkUpkeep","outputs":[{"internalType":"bool","name":"upkeepNeeded","type":"bool"},{"internalType":"bytes","name":"performData","type":"bytes"}],"stateMutability":"view","type":"function"},{"inputs":[],"name":"liquidity","outputs":[{"internalType":"uint256","name":"","type":"uint256"}],"stateMutability":"view","type":"function"},{"inputs":[{"internalType":"bytes","name":"performData","type":"bytes"}],"name":"performUpkeep","outputs":[],"stateMutability":"nonpayable","type":"function"},{"inputs":[{"internalType":"uint256","name":"amount","type":"uint256"},{"internalType":"uint256[]","name":"indexes","type":"uint256[]"}],"name":"withdraw","outputs":[],"stateMutability":"nonpayable","type":"function"}],"evm":{"bytecode":{"linkReferences":{},"object":"6080604052620f42406103e85534801561001857600080fd5b5060005b6103e8811015610056576103e86000826103e8811061003e5761003d61005c565b5b0181905550808061004e906100c4565b91505061001c565b5061010c565b7f4e487b7100000000000000000000000000000000000000000000000000000000600052603260045260246000fd5b7f4e487b7100000000000000000000000000000000000000000000000000000000600052601160045260246000fd5b6000819050919050565b60006100cf826100ba565b91507fffffffffffffffffffffffffffffffffffffffffffffffffffffffffffffffff82036101015761010061008b565b5b600182019050919050565b610e1c8061011b6000396000f3fe608060405234801561001057600080fd5b50600436106100885760003560e01c80635915d8061161005b5780635915d806146101135780636e04ff0d1461012f578063af8214ef14610160578063bdffd2821461017e57610088565b80631a6865021461008d5780634585e33b146100ab5780634903b0d1146100c757806351c6590a146100f7575b600080fd5b61009561019c565b6040516100a2919061066d565b60405180910390f35b6100c560048036038101906100c09190610701565b6101a3565b005b6100e160048036038101906100dc919061077a565b6102a7565b6040516100ee919061066d565b60405180910390f35b610111600480360381019061010c919061077a565b6102c3565b005b61012d600480360381019061012891906108f6565b6102e0565b005b61014960048036038101906101449190610701565b6103a9565b6040516101579291906109ec565b60405180910390f35b610168610648565b604051610175919061066d565b60405180910390f35b61018661064e565b604051610193919061066d565b60405180910390f35b6103e85481565b60008083838101906101b59190610a1c565b915091506000806103e854905060005b8451811015610296578381815181106101e1576101e0610a94565b5b602002602001015160008683815181106101fe576101fd610a94565b5b60200260200101516103e8811061021857610217610a94565b5b01546102249190610af2565b925083818151811061023957610238610a94565b5b60200260200101518261024c9190610b26565b915082600086838151811061026457610263610a94565b5b60200260200101516103e8811061027e5761027d610a94565b5b0181905550808061028e90610b5a565b9150506101c5565b50806103e881905550505050505050565b6000816103e881106102b857600080fd5b016000915090505481565b806103e860008282546102d69190610af2565b9250508190555050565b60005b81518110156103a4576103e882828151811061030257610301610a94565b5b60200260200101511061034a576040517f08c379a000000000000000000000000000000000000000000000000000000000815260040161034190610bff565b60405180910390fd5b8260008383815181106103605761035f610a94565b5b60200260200101516103e8811061037a57610379610a94565b5b01600082825461038a9190610b26565b92505081905550808061039c90610b5a565b9150506102e3565b505050565b6000606060008085858101906103bf9190610c1f565b915091506103e8811080156103d357508082105b610412576040517f08c379a000000000000000000000000000000000000000000000000000000000815260040161040990610cd1565b60405180910390fd5b600080600090505b600184846104289190610b26565b6104329190610af2565b811015610486576103e86000828661044a9190610af2565b6103e8811061045c5761045b610a94565b5b0154101561047357818061046f90610b5a565b9250505b808061047e90610b5a565b91505061041a565b5060008167ffffffffffffffff8111156104a3576104a26107b8565b5b6040519080825280602002602001820160405280156104d15781602001602082028036833780820191505090505b50905060008267ffffffffffffffff8111156104f0576104ef6107b8565b5b60405190808252806020026020018201604052801561051e5781602001602082028036833780820191505090505b50905060009650600080600090505b6001878761053b9190610b26565b6105459190610af2565b811015610616576103e86000828961055d9190610af2565b6103e8811061056f5761056e610a94565b5b01541015610603576001985080876105879190610af2565b84838151811061059a57610599610a94565b5b602002602001018181525050600081886105b49190610af2565b6103e881106105c6576105c5610a94565b5b01546103e86105d59190610b26565b8383815181106105e8576105e7610a94565b5b60200260200101818152505081806105ff90610b5a565b9250505b808061060e90610b5a565b91505061052d565b50828260405160200161062a929190610daf565b60405160208183030381529060405296505050505050509250929050565b6103e881565b6103e881565b6000819050919050565b61066781610654565b82525050565b6000602082019050610682600083018461065e565b92915050565b6000604051905090565b600080fd5b600080fd5b600080fd5b600080fd5b600080fd5b60008083601f8401126106c1576106c061069c565b5b8235905067ffffffffffffffff8111156106de576106dd6106a1565b5b6020830191508360018202830111156106fa576106f96106a6565b5b9250929050565b6000806020838503121561071857610717610692565b5b600083013567ffffffffffffffff81111561073657610735610697565b5b610742858286016106ab565b92509250509250929050565b61075781610654565b811461076257600080fd5b50565b6000813590506107748161074e565b92915050565b6000602082840312156107905761078f610692565b5b600061079e84828501610765565b91505092915050565b6000601f19601f8301169050919050565b7f4e487b7100000000000000000000000000000000000000000000000000000000600052604160045260246000fd5b6107f0826107a7565b810181811067ffffffffffffffff8211171561080f5761080e6107b8565b5b80604052505050565b6000610822610688565b905061082e82826107e7565b919050565b600067ffffffffffffffff82111561084e5761084d6107b8565b5b602082029050602081019050919050565b600061087261086d84610833565b610818565b90508083825260208201905060208402830185811115610895576108946106a6565b5b835b818110156108be57806108aa8882610765565b845260208401935050602081019050610897565b5050509392505050565b600082601f8301126108dd576108dc61069c565b5b81356108ed84826020860161085f565b91505092915050565b6000806040838503121561090d5761090c610692565b5b600061091b85828601610765565b925050602083013567ffffffffffffffff81111561093c5761093b610697565b5b610948858286016108c8565b9150509250929050565b60008115159050919050565b61096781610952565b82525050565b600081519050919050565b600082825260208201905092915050565b60005b838110156109a757808201518184015260208101905061098c565b60008484015250505050565b60006109be8261096d565b6109c88185610978565b93506109d8818560208601610989565b6109e1816107a7565b840191505092915050565b6000604082019050610a01600083018561095e565b8181036020830152610a1381846109b3565b90509392505050565b60008060408385031215610a3357610a32610692565b5b600083013567ffffffffffffffff811115610a5157610a50610697565b5b610a5d858286016108c8565b925050602083013567ffffffffffffffff811115610a7e57610a7d610697565b5b610a8a858286016108c8565b9150509250929050565b7f4e487b7100000000000000000000000000000000000000000000000000000000600052603260045260246000fd5b7f4e487b7100000000000000000000000000000000000000000000000000000000600052601160045260246000fd5b6000610afd82610654565b9150610b0883610654565b9250828201905080821115610b2057610b1f610ac3565b5b92915050565b6000610b3182610654565b9150610b3c83610654565b9250828203905081811115610b5457610b53610ac3565b5b92915050565b6000610b6582610654565b91507fffffffffffffffffffffffffffffffffffffffffffffffffffffffffffffffff8203610b9757610b96610ac3565b5b600182019050919050565b600082825260208201905092915050565b7f50726f766964656420696e646578206f7574206f6620626f756e640000000000600082015250565b6000610be9601b83610ba2565b9150610bf482610bb3565b602082019050919050565b60006020820190508181036000830152610c1881610bdc565b9050919050565b60008060408385031215610c3657610c35610692565b5b6000610c4485828601610765565b9250506020610c5585828601610765565b9150509250929050565b7f4c6f776572626f756e6420616e64205570706572626f756e64206e6f7420636f60008201527f7272656374000000000000000000000000000000000000000000000000000000602082015250565b6000610cbb602583610ba2565b9150610cc682610c5f565b604082019050919050565b60006020820190508181036000830152610cea81610cae565b9050919050565b600081519050919050565b600082825260208201905092915050565b6000819050602082019050919050565b610d2681610654565b82525050565b6000610d388383610d1d565b60208301905092915050565b6000602082019050919050565b6000610d5c82610cf1565b610d668185610cfc565b9350610d7183610d0d565b8060005b83811015610da2578151610d898882610d2c565b9750610d9483610d44565b925050600181019050610d75565b5085935050505092915050565b60006040820190508181036000830152610dc98185610d51565b90508181036020830152610ddd8184610d51565b9050939250505056fea264697066735822122014a79e239c34c3ae70124d6265c0904d76172544a806baf14ff0525e94ffbb2564736f6c63430008130033","opcodes":"PUSH1 0x80 PUSH1 0x40 MSTORE PUSH3 0xF4240 PUSH2 0x3E8 SSTORE CALLVALUE DUP1 ISZERO PUSH2 0x18 JUMPI PUSH1 0x0 DUP1 REVERT JUMPDEST POP PUSH1 0x0 JUMPDEST PUSH2 0x3E8 DUP2 LT ISZERO PUSH2 0x56 JUMPI PUSH2 0x3E8 PUSH1 0x0 DUP3 PUSH2 0x3E8 DUP2 LT PUSH2 0x3E JUMPI PUSH2 0x3D PUSH2 0x5C JUMP JUMPDEST JUMPDEST ADD DUP2 SWAP1 SSTORE POP DUP1 DUP1 PUSH2 0x4E SWAP1 PUSH2 0xC4 JUMP JUMPDEST SWAP2 POP POP PUSH2 0x1C JUMP JUMPDEST POP PUSH2 0x10C JUMP JUMPDEST PUSH32 0x4E487B7100000000000000000000000000000000000000000000000000000000 PUSH1 0x0 MSTORE PUSH1 0x32 PUSH1 0x4 MSTORE PUSH1 0x24 PUSH1 0x0 REVERT JUMPDEST PUSH32 0x4E487B7100000000000000000000000000000000000000000000000000000000 PUSH1 0x0 MSTORE PUSH1 0x11 PUSH1 0x4 MSTORE PUSH1 0x24 PUSH1 0x0 REVERT JUMPDEST PUSH1 0x0 DUP2 SWAP1 POP SWAP2 SWAP1 POP JUMP JUMPDEST PUSH1 0x0 PUSH2 0xCF DUP3 PUSH2 0xBA JUMP JUMPDEST SWAP2 POP PUSH32 0xFFFFFFFFFFFFFFFFFFFFFFFFFFFFFFFFFFFFFFFFFFFFFFFFFFFFFFFFFFFFFFFF DUP3 SUB PUSH2 0x101 JUMPI PUSH2 0x100 PUSH2 0x8B JUMP JUMPDEST JUMPDEST PUSH1 0x1 DUP3 ADD SWAP1 POP SWAP2 SWAP1 POP JUMP JUMPDEST PUSH2 0xE1C DUP1 PUSH2 0x11B PUSH1 0x0 CODECOPY PUSH1 0x0 RETURN INVALID PUSH1 0x80 PUSH1 0x40 MSTORE CALLVALUE DUP1 ISZERO PUSH2 0x10 JUMPI PUSH1 0x0 DUP1 REVERT JUMPDEST POP PUSH1 0x4 CALLDATASIZE LT PUSH2 0x88 JUMPI PUSH1 0x0 CALLDATALOAD PUSH1 0xE0 SHR DUP1 PUSH4 0x5915D806 GT PUSH2 0x5B JUMPI DUP1 PUSH4 0x5915D806 EQ PUSH2 0x113 JUMPI DUP1 PUSH4 0x6E04FF0D EQ PUSH2 0x12F JUMPI DUP1 PUSH4 0xAF8214EF EQ PUSH2 0x160 JUMPI DUP1 PUSH4 0xBDFFD282 EQ PUSH2 0x17E JUMPI PUSH2 0x88 JUMP JUMPDEST DUP1 PUSH4 0x1A686502 EQ PUSH2 0x8D JUMPI DUP1 PUSH4 0x4585E33B EQ PUSH2 0xAB JUMPI DUP1 PUSH4 0x4903B0D1 EQ PUSH2 0xC7 JUMPI DUP1 PUSH4 0x51C6590A EQ PUSH2 0xF7 JUMPI JUMPDEST PUSH1 0x0 DUP1 REVERT JUMPDEST PUSH2 0x95 PUSH2 0x19C JUMP JUMPDEST PUSH1 0x40 MLOAD PUSH2 0xA2 SWAP2 SWAP1 PUSH2 0x66D JUMP JUMPDEST PUSH1 0x40 MLOAD DUP1 SWAP2 SUB SWAP1 RETURN JUMPDEST PUSH2 0xC5 PUSH1 0x4 DUP1 CALLDATASIZE SUB DUP2 ADD SWAP1 PUSH2 0xC0 SWAP2 SWAP1 PUSH2 0x701 JUMP JUMPDEST PUSH2 0x1A3 JUMP JUMPDEST STOP JUMPDEST PUSH2 0xE1 PUSH1 0x4 DUP1 CALLDATASIZE SUB DUP2 ADD SWAP1 PUSH2 0xDC SWAP2 SWAP1 PUSH2 0x77A JUMP JUMPDEST PUSH2 0x2A7 JUMP JUMPDEST PUSH1 0x40 MLOAD PUSH2 0xEE SWAP2 SWAP1 PUSH2 0x66D JUMP JUMPDEST PUSH1 0x40 MLOAD DUP1 SWAP2 SUB SWAP1 RETURN JUMPDEST PUSH2 0x111 PUSH1 0x4 DUP1 CALLDATASIZE SUB DUP2 ADD SWAP1 PUSH2 0x10C SWAP2 SWAP1 PUSH2 0x77A JUMP JUMPDEST PUSH2 0x2C3 JUMP JUMPDEST STOP JUMPDEST PUSH2 0x12D PUSH1 0x4 DUP1 CALLDATASIZE SUB DUP2 ADD SWAP1 PUSH2 0x128 SWAP2 SWAP1 PUSH2 0x8F6 JUMP JUMPDEST PUSH2 0x2E0 JUMP JUMPDEST STOP JUMPDEST PUSH2 0x149 PUSH1 0x4 DUP1 CALLDATASIZE SUB DUP2 ADD SWAP1 PUSH2 0x144 SWAP2 SWAP1 PUSH2 0x701 JUMP JUMPDEST PUSH2 0x3A9 JUMP JUMPDEST PUSH1 0x40 MLOAD PUSH2 0x157 SWAP3 SWAP2 SWAP1 PUSH2 0x9EC JUMP JUMPDEST PUSH1 0x40 MLOAD DUP1 SWAP2 SUB SWAP1 RETURN JUMPDEST PUSH2 0x168 PUSH2 0x648 JUMP JUMPDEST PUSH1 0x40 MLOAD PUSH2 0x175 SWAP2 SWAP1 PUSH2 0x66D JUMP JUMPDEST PUSH1 0x40 MLOAD DUP1 SWAP2 SUB SWAP1 RETURN JUMPDEST PUSH2 0x186 PUSH2 0x64E JUMP JUMPDEST PUSH1 0x40 MLOAD PUSH2 0x193 SWAP2 SWAP1 PUSH2 0x66D JUMP JUMPDEST PUSH1 0x40 MLOAD DUP1 SWAP2 SUB SWAP1 RETURN JUMPDEST PUSH2 0x3E8 SLOAD DUP2 JUMP JUMPDEST PUSH1 0x0 DUP1 DUP4 DUP4 DUP2 ADD SWAP1 PUSH2 0x1B5 SWAP2 SWAP1 PUSH2 0xA1C JUMP JUMPDEST SWAP2 POP SWAP2 POP PUSH1 0x0 DUP1 PUSH2 0x3E8 SLOAD SWAP1 POP PUSH1 0x0 JUMPDEST DUP5 MLOAD DUP2 LT ISZERO PUSH2 0x296 JUMPI DUP4 DUP2 DUP2 MLOAD DUP2 LT PUSH2 0x1E1 JUMPI PUSH2 0x1E0 PUSH2 0xA94 JUMP JUMPDEST JUMPDEST PUSH1 0x20 MUL PUSH1 0x20 ADD ADD MLOAD PUSH1 0x0 DUP7 DUP4 DUP2 MLOAD DUP2 LT PUSH2 0x1FE JUMPI PUSH2 0x1FD PUSH2 0xA94 JUMP JUMPDEST JUMPDEST PUSH1 0x20 MUL PUSH1 0x20 ADD ADD MLOAD PUSH2 0x3E8 DUP2 LT PUSH2 0x218 JUMPI PUSH2 0x217 PUSH2 0xA94 JUMP JUMPDEST JUMPDEST ADD SLOAD PUSH2 0x224 SWAP2 SWAP1 PUSH2 0xAF2 JUMP JUMPDEST SWAP3 POP DUP4 DUP2 DUP2 MLOAD DUP2 LT PUSH2 0x239 JUMPI PUSH2 0x238 PUSH2 0xA94 JUMP JUMPDEST JUMPDEST PUSH1 0x20 MUL PUSH1 0x20 ADD ADD MLOAD DUP3 PUSH2 0x24C SWAP2 SWAP1 PUSH2 0xB26 JUMP JUMPDEST SWAP2 POP DUP3 PUSH1 0x0 DUP7 DUP4 DUP2 MLOAD DUP2 LT PUSH2 0x264 JUMPI PUSH2 0x263 PUSH2 0xA94 JUMP JUMPDEST JUMPDEST PUSH1 0x20 MUL PUSH1 0x20 ADD ADD MLOAD PUSH2 0x3E8 DUP2 LT PUSH2 0x27E JUMPI PUSH2 0x27D PUSH2 0xA94 JUMP JUMPDEST JUMPDEST ADD DUP2 SWAP1 SSTORE POP DUP1 DUP1 PUSH2 0x28E SWAP1 PUSH2 0xB5A JUMP JUMPDEST SWAP2 POP POP PUSH2 0x1C5 JUMP JUMPDEST POP DUP1 PUSH2 0x3E8 DUP2 SWAP1 SSTORE POP POP POP POP POP POP POP JUMP JUMPDEST PUSH1 0x0 DUP2 PUSH2 0x3E8 DUP2 LT PUSH2 0x2B8 JUMPI PUSH1 0x0 DUP1 REVERT JUMPDEST ADD PUSH1 0x0 SWAP2 POP SWAP1 POP SLOAD DUP2 JUMP JUMPDEST DUP1 PUSH2 0x3E8 PUSH1 0x0 DUP3 DUP3 SLOAD PUSH2 0x2D6 SWAP2 SWAP1 PUSH2 0xAF2 JUMP JUMPDEST SWAP3 POP POP DUP2 SWAP1 SSTORE POP POP JUMP JUMPDEST PUSH1 0x0 JUMPDEST DUP2 MLOAD DUP2 LT ISZERO PUSH2 0x3A4 JUMPI PUSH2 0x3E8 DUP3 DUP3 DUP2 MLOAD DUP2 LT PUSH2 0x302 JUMPI PUSH2 0x301 PUSH2 0xA94 JUMP JUMPDEST JUMPDEST PUSH1 0x20 MUL PUSH1 0x20 ADD ADD MLOAD LT PUSH2 0x34A JUMPI PUSH1 0x40 MLOAD PUSH32 0x8C379A000000000000000000000000000000000000000000000000000000000 DUP2 MSTORE PUSH1 0x4 ADD PUSH2 0x341 SWAP1 PUSH2 0xBFF JUMP JUMPDEST PUSH1 0x40 MLOAD DUP1 SWAP2 SUB SWAP1 REVERT JUMPDEST DUP3 PUSH1 0x0 DUP4 DUP4 DUP2 MLOAD DUP2 LT PUSH2 0x360 JUMPI PUSH2 0x35F PUSH2 0xA94 JUMP JUMPDEST JUMPDEST PUSH1 0x20 MUL PUSH1 0x20 ADD ADD MLOAD PUSH2 0x3E8 DUP2 LT PUSH2 0x37A JUMPI PUSH2 0x379 PUSH2 0xA94 JUMP JUMPDEST JUMPDEST ADD PUSH1 0x0 DUP3 DUP3 SLOAD PUSH2 0x38A SWAP2 SWAP1 PUSH2 0xB26 JUMP JUMPDEST SWAP3 POP POP DUP2 SWAP1 SSTORE POP DUP1 DUP1 PUSH2 0x39C SWAP1 PUSH2 0xB5A JUMP JUMPDEST SWAP2 POP POP PUSH2 0x2E3 JUMP JUMPDEST POP POP POP JUMP JUMPDEST PUSH1 0x0 PUSH1 0x60 PUSH1 0x0 DUP1 DUP6 DUP6 DUP2 ADD SWAP1 PUSH2 0x3BF SWAP2 SWAP1 PUSH2 0xC1F JUMP JUMPDEST SWAP2 POP SWAP2 POP PUSH2 0x3E8 DUP2 LT DUP1 ISZERO PUSH2 0x3D3 JUMPI POP DUP1 DUP3 LT JUMPDEST PUSH2 0x412 JUMPI PUSH1 0x40 MLOAD PUSH32 0x8C379A000000000000000000000000000000000000000000000000000000000 DUP2 MSTORE PUSH1 0x4 ADD PUSH2 0x409 SWAP1 PUSH2 0xCD1 JUMP JUMPDEST PUSH1 0x40 MLOAD DUP1 SWAP2 SUB SWAP1 REVERT JUMPDEST PUSH1 0x0 DUP1 PUSH1 0x0 SWAP1 POP JUMPDEST PUSH1 0x1 DUP5 DUP5 PUSH2 0x428 SWAP2 SWAP1 PUSH2 0xB26 JUMP JUMPDEST PUSH2 0x432 SWAP2 SWAP1 PUSH2 0xAF2 JUMP JUMPDEST DUP2 LT ISZERO PUSH2 0x486 JUMPI PUSH2 0x3E8 PUSH1 0x0 DUP3 DUP7 PUSH2 0x44A SWAP2 SWAP1 PUSH2 0xAF2 JUMP JUMPDEST PUSH2 0x3E8 DUP2 LT PUSH2 0x45C JUMPI PUSH2 0x45B PUSH2 0xA94 JUMP JUMPDEST JUMPDEST ADD SLOAD LT ISZERO PUSH2 0x473 JUMPI DUP2 DUP1 PUSH2 0x46F SWAP1 PUSH2 0xB5A JUMP JUMPDEST SWAP3 POP POP JUMPDEST DUP1 DUP1 PUSH2 0x47E SWAP1 PUSH2 0xB5A JUMP JUMPDEST SWAP2 POP POP PUSH2 0x41A JUMP JUMPDEST POP PUSH1 0x0 DUP2 PUSH8 0xFFFFFFFFFFFFFFFF DUP2 GT ISZERO PUSH2 0x4A3 JUMPI PUSH2 0x4A2 PUSH2 0x7B8 JUMP JUMPDEST JUMPDEST PUSH1 0x40 MLOAD SWAP1 DUP1 DUP3 MSTORE DUP1 PUSH1 0x20 MUL PUSH1 0x20 ADD DUP3 ADD PUSH1 0x40 MSTORE DUP1 ISZERO PUSH2 0x4D1 JUMPI DUP2 PUSH1 0x20 ADD PUSH1 0x20 DUP3 MUL DUP1 CALLDATASIZE DUP4 CALLDATACOPY DUP1 DUP3 ADD SWAP2 POP POP SWAP1 POP JUMPDEST POP SWAP1 POP PUSH1 0x0 DUP3 PUSH8 0xFFFFFFFFFFFFFFFF DUP2 GT ISZERO PUSH2 0x4F0 JUMPI PUSH2 0x4EF PUSH2 0x7B8 JUMP JUMPDEST JUMPDEST PUSH1 0x40 MLOAD SWAP1 DUP1 DUP3 MSTORE DUP1 PUSH1 0x20 MUL PUSH1 0x20 ADD DUP3 ADD PUSH1 0x40 MSTORE DUP1 ISZERO PUSH2 0x51E JUMPI DUP2 PUSH1 0x20 ADD PUSH1 0x20 DUP3 MUL DUP1 CALLDATASIZE DUP4 CALLDATACOPY DUP1 DUP3 ADD SWAP2 POP POP SWAP1 POP JUMPDEST POP SWAP1 POP PUSH1 0x0 SWAP7 POP PUSH1 0x0 DUP1 PUSH1 0x0 SWAP1 POP JUMPDEST PUSH1 0x1 DUP8 DUP8 PUSH2 0x53B SWAP2 SWAP1 PUSH2 0xB26 JUMP JUMPDEST PUSH2 0x545 SWAP2 SWAP1 PUSH2 0xAF2 JUMP JUMPDEST DUP2 LT ISZERO PUSH2 0x616 JUMPI PUSH2 0x3E8 PUSH1 0x0 DUP3 DUP10 PUSH2 0x55D SWAP2 SWAP1 PUSH2 0xAF2 JUMP JUMPDEST PUSH2 0x3E8 DUP2 LT PUSH2 0x56F JUMPI PUSH2 0x56E PUSH2 0xA94 JUMP JUMPDEST JUMPDEST ADD SLOAD LT ISZERO PUSH2 0x603 JUMPI PUSH1 0x1 SWAP9 POP DUP1 DUP8 PUSH2 0x587 SWAP2 SWAP1 PUSH2 0xAF2 JUMP JUMPDEST DUP5 DUP4 DUP2 MLOAD DUP2 LT PUSH2 0x59A JUMPI PUSH2 0x599 PUSH2 0xA94 JUMP JUMPDEST JUMPDEST PUSH1 0x20 MUL PUSH1 0x20 ADD ADD DUP2 DUP2 MSTORE POP POP PUSH1 0x0 DUP2 DUP9 PUSH2 0x5B4 SWAP2 SWAP1 PUSH2 0xAF2 JUMP JUMPDEST PUSH2 0x3E8 DUP2 LT PUSH2 0x5C6 JUMPI PUSH2 0x5C5 PUSH2 0xA94 JUMP JUMPDEST JUMPDEST ADD SLOAD PUSH2 0x3E8 PUSH2 0x5D5 SWAP2 SWAP1 PUSH2 0xB26 JUMP JUMPDEST DUP4 DUP4 DUP2 MLOAD DUP2 LT PUSH2 0x5E8 JUMPI PUSH2 0x5E7 PUSH2 0xA94 JUMP JUMPDEST JUMPDEST PUSH1 0x20 MUL PUSH1 0x20 ADD ADD DUP2 DUP2 MSTORE POP POP DUP2 DUP1 PUSH2 0x5FF SWAP1 PUSH2 0xB5A JUMP JUMPDEST SWAP3 POP POP JUMPDEST DUP1 DUP1 PUSH2 0x60E SWAP1 PUSH2 0xB5A JUMP JUMPDEST SWAP2 POP POP PUSH2 0x52D JUMP JUMPDEST POP DUP3 DUP3 PUSH1 0x40 MLOAD PUSH1 0x20 ADD PUSH2 0x62A SWAP3 SWAP2 SWAP1 PUSH2 0xDAF JUMP JUMPDEST PUSH1 0x40 MLOAD PUSH1 0x20 DUP2 DUP4 SUB SUB DUP2 MSTORE SWAP1 PUSH1 0x40 MSTORE SWAP7 POP POP POP POP POP POP POP SWAP3 POP SWAP3 SWAP1 POP JUMP JUMPDEST PUSH2 0x3E8 DUP2 JUMP JUMPDEST PUSH2 0x3E8 DUP2 JUMP JUMPDEST PUSH1 0x0 DUP2 SWAP1 POP SWAP2 SWAP1 POP JUMP JUMPDEST PUSH2 0x667 DUP2 PUSH2 0x654 JUMP JUMPDEST DUP3 MSTORE POP POP JUMP JUMPDEST PUSH1 0x0 PUSH1 0x20 DUP3 ADD SWAP1 POP PUSH2 0x682 PUSH1 0x0 DUP4 ADD DUP5 PUSH2 0x65E JUMP JUMPDEST SWAP3 SWAP2 POP POP JUMP JUMPDEST PUSH1 0x0 PUSH1 0x40 MLOAD SWAP1 POP SWAP1 JUMP JUMPDEST PUSH1 0x0 DUP1 REVERT JUMPDEST PUSH1 0x0 DUP1 REVERT JUMPDEST PUSH1 0x0 DUP1 REVERT JUMPDEST PUSH1 0x0 DUP1 REVERT JUMPDEST PUSH1 0x0 DUP1 REVERT JUMPDEST PUSH1 0x0 DUP1 DUP4 PUSH1 0x1F DUP5 ADD SLT PUSH2 0x6C1 JUMPI PUSH2 0x6C0 PUSH2 0x69C JUMP JUMPDEST JUMPDEST DUP3 CALLDATALOAD SWAP1 POP PUSH8 0xFFFFFFFFFFFFFFFF DUP2 GT ISZERO PUSH2 0x6DE JUMPI PUSH2 0x6DD PUSH2 0x6A1 JUMP JUMPDEST JUMPDEST PUSH1 0x20 DUP4 ADD SWAP2 POP DUP4 PUSH1 0x1 DUP3 MUL DUP4 ADD GT ISZERO PUSH2 0x6FA JUMPI PUSH2 0x6F9 PUSH2 0x6A6 JUMP JUMPDEST JUMPDEST SWAP3 POP SWAP3 SWAP1 POP JUMP JUMPDEST PUSH1 0x0 DUP1 PUSH1 0x20 DUP4 DUP6 SUB SLT ISZERO PUSH2 0x718 JUMPI PUSH2 0x717 PUSH2 0x692 JUMP JUMPDEST JUMPDEST PUSH1 0x0 DUP4 ADD CALLDATALOAD PUSH8 0xFFFFFFFFFFFFFFFF DUP2 GT ISZERO PUSH2 0x736 JUMPI PUSH2 0x735 PUSH2 0x697 JUMP JUMPDEST JUMPDEST PUSH2 0x742 DUP6 DUP3 DUP7 ADD PUSH2 0x6AB JUMP JUMPDEST SWAP3 POP SWAP3 POP POP SWAP3 POP SWAP3 SWAP1 POP JUMP JUMPDEST PUSH2 0x757 DUP2 PUSH2 0x654 JUMP JUMPDEST DUP2 EQ PUSH2 0x762 JUMPI PUSH1 0x0 DUP1 REVERT JUMPDEST POP JUMP JUMPDEST PUSH1 0x0 DUP2 CALLDATALOAD SWAP1 POP PUSH2 0x774 DUP2 PUSH2 0x74E JUMP JUMPDEST SWAP3 SWAP2 POP POP JUMP JUMPDEST PUSH1 0x0 PUSH1 0x20 DUP3 DUP5 SUB SLT ISZERO PUSH2 0x790 JUMPI PUSH2 0x78F PUSH2 0x692 JUMP JUMPDEST JUMPDEST PUSH1 0x0 PUSH2 0x79E DUP5 DUP3 DUP6 ADD PUSH2 0x765 JUMP JUMPDEST SWAP2 POP POP SWAP3 SWAP2 POP POP JUMP JUMPDEST PUSH1 0x0 PUSH1 0x1F NOT PUSH1 0x1F DUP4 ADD AND SWAP1 POP SWAP2 SWAP1 POP JUMP JUMPDEST PUSH32 0x4E487B7100000000000000000000000000000000000000000000000000000000 PUSH1 0x0 MSTORE PUSH1 0x41 PUSH1 0x4 MSTORE PUSH1 0x24 PUSH1 0x0 REVERT JUMPDEST PUSH2 0x7F0 DUP3 PUSH2 0x7A7 JUMP JUMPDEST DUP2 ADD DUP2 DUP2 LT PUSH8 0xFFFFFFFFFFFFFFFF DUP3 GT OR ISZERO PUSH2 0x80F JUMPI PUSH2 0x80E PUSH2 0x7B8 JUMP JUMPDEST JUMPDEST DUP1 PUSH1 0x40 MSTORE POP POP POP JUMP JUMPDEST PUSH1 0x0 PUSH2 0x822 PUSH2 0x688 JUMP JUMPDEST SWAP1 POP PUSH2 0x82E DUP3 DUP3 PUSH2 0x7E7 JUMP JUMPDEST SWAP2 SWAP1 POP JUMP JUMPDEST PUSH1 0x0 PUSH8 0xFFFFFFFFFFFFFFFF DUP3 GT ISZERO PUSH2 0x84E JUMPI PUSH2 0x84D PUSH2 0x7B8 JUMP JUMPDEST JUMPDEST PUSH1 0x20 DUP3 MUL SWAP1 POP PUSH1 0x20 DUP2 ADD SWAP1 POP SWAP2 SWAP1 POP JUMP JUMPDEST PUSH1 0x0 PUSH2 0x872 PUSH2 0x86D DUP5 PUSH2 0x833 JUMP JUMPDEST PUSH2 0x818 JUMP JUMPDEST SWAP1 POP DUP1 DUP4 DUP3 MSTORE PUSH1 0x20 DUP3 ADD SWAP1 POP PUSH1 0x20 DUP5 MUL DUP4 ADD DUP6 DUP2 GT ISZERO PUSH2 0x895 JUMPI PUSH2 0x894 PUSH2 0x6A6 JUMP JUMPDEST JUMPDEST DUP4 JUMPDEST DUP2 DUP2 LT ISZERO PUSH2 0x8BE JUMPI DUP1 PUSH2 0x8AA DUP9 DUP3 PUSH2 0x765 JUMP JUMPDEST DUP5 MSTORE PUSH1 0x20 DUP5 ADD SWAP4 POP POP PUSH1 0x20 DUP2 ADD SWAP1 POP PUSH2 0x897 JUMP JUMPDEST POP POP POP SWAP4 SWAP3 POP POP POP JUMP JUMPDEST PUSH1 0x0 DUP3 PUSH1 0x1F DUP4 ADD SLT PUSH2 0x8DD JUMPI PUSH2 0x8DC PUSH2 0x69C JUMP JUMPDEST JUMPDEST DUP2 CALLDATALOAD PUSH2 0x8ED DUP5 DUP3 PUSH1 0x20 DUP7 ADD PUSH2 0x85F JUMP JUMPDEST SWAP2 POP POP SWAP3 SWAP2 POP POP JUMP JUMPDEST PUSH1 0x0 DUP1 PUSH1 0x40 DUP4 DUP6 SUB SLT ISZERO PUSH2 0x90D JUMPI PUSH2 0x90C PUSH2 0x692 JUMP JUMPDEST JUMPDEST PUSH1 0x0 PUSH2 0x91B DUP6 DUP3 DUP7 ADD PUSH2 0x765 JUMP JUMPDEST SWAP3 POP POP PUSH1 0x20 DUP4 ADD CALLDATALOAD PUSH8 0xFFFFFFFFFFFFFFFF DUP2 GT ISZERO PUSH2 0x93C JUMPI PUSH2 0x93B PUSH2 0x697 JUMP JUMPDEST JUMPDEST PUSH2 0x948 DUP6 DUP3 DUP7 ADD PUSH2 0x8C8 JUMP JUMPDEST SWAP2 POP POP SWAP3 POP SWAP3 SWAP1 POP JUMP JUMPDEST PUSH1 0x0 DUP2 ISZERO ISZERO SWAP1 POP SWAP2 SWAP1 POP JUMP JUMPDEST PUSH2 0x967 DUP2 PUSH2 0x952 JUMP JUMPDEST DUP3 MSTORE POP POP JUMP JUMPDEST PUSH1 0x0 DUP2 MLOAD SWAP1 POP SWAP2 SWAP1 POP JUMP JUMPDEST PUSH1 0x0 DUP3 DUP3 MSTORE PUSH1 0x20 DUP3 ADD SWAP1 POP SWAP3 SWAP2 POP POP JUMP JUMPDEST PUSH1 0x0 JUMPDEST DUP4 DUP2 LT ISZERO PUSH2 0x9A7 JUMPI DUP1 DUP3 ADD MLOAD DUP2 DUP5 ADD MSTORE PUSH1 0x20 DUP2 ADD SWAP1 POP PUSH2 0x98C JUMP JUMPDEST PUSH1 0x0 DUP5 DUP5 ADD MSTORE POP POP POP POP JUMP JUMPDEST PUSH1 0x0 PUSH2 0x9BE DUP3 PUSH2 0x96D JUMP JUMPDEST PUSH2 0x9C8 DUP2 DUP6 PUSH2 0x978 JUMP JUMPDEST SWAP4 POP PUSH2 0x9D8 DUP2 DUP6 PUSH1 0x20 DUP7 ADD PUSH2 0x989 JUMP JUMPDEST PUSH2 0x9E1 DUP2 PUSH2 0x7A7 JUMP JUMPDEST DUP5 ADD SWAP2 POP POP SWAP3 SWAP2 POP POP JUMP JUMPDEST PUSH1 0x0 PUSH1 0x40 DUP3 ADD SWAP1 POP PUSH2 0xA01 PUSH1 0x0 DUP4 ADD DUP6 PUSH2 0x95E JUMP JUMPDEST DUP2 DUP2 SUB PUSH1 0x20 DUP4 ADD MSTORE PUSH2 0xA13 DUP2 DUP5 PUSH2 0x9B3 JUMP JUMPDEST SWAP1 POP SWAP4 SWAP3 POP POP POP JUMP JUMPDEST PUSH1 0x0 DUP1 PUSH1 0x40 DUP4 DUP6 SUB SLT ISZERO PUSH2 0xA33 JUMPI PUSH2 0xA32 PUSH2 0x692 JUMP JUMPDEST JUMPDEST PUSH1 0x0 DUP4 ADD CALLDATALOAD PUSH8 0xFFFFFFFFFFFFFFFF DUP2 GT ISZERO PUSH2 0xA51 JUMPI PUSH2 0xA50 PUSH2 0x697 JUMP JUMPDEST JUMPDEST PUSH2 0xA5D DUP6 DUP3 DUP7 ADD PUSH2 0x8C8 JUMP JUMPDEST SWAP3 POP POP PUSH1 0x20 DUP4 ADD CALLDATALOAD PUSH8 0xFFFFFFFFFFFFFFFF DUP2 GT ISZERO PUSH2 0xA7E JUMPI PUSH2 0xA7D PUSH2 0x697 JUMP JUMPDEST JUMPDEST PUSH2 0xA8A DUP6 DUP3 DUP7 ADD PUSH2 0x8C8 JUMP JUMPDEST SWAP2 POP POP SWAP3 POP SWAP3 SWAP1 POP JUMP JUMPDEST PUSH32 0x4E487B7100000000000000000000000000000000000000000000000000000000 PUSH1 0x0 MSTORE PUSH1 0x32 PUSH1 0x4 MSTORE PUSH1 0x24 PUSH1 0x0 REVERT JUMPDEST PUSH32 0x4E487B7100000000000000000000000000000000000000000000000000000000 PUSH1 0x0 MSTORE PUSH1 0x11 PUSH1 0x4 MSTORE PUSH1 0x24 PUSH1 0x0 REVERT JUMPDEST PUSH1 0x0 PUSH2 0xAFD DUP3 PUSH2 0x654 JUMP JUMPDEST SWAP2 POP PUSH2 0xB08 DUP4 PUSH2 0x654 JUMP JUMPDEST SWAP3 POP DUP3 DUP3 ADD SWAP1 POP DUP1 DUP3 GT ISZERO PUSH2 0xB20 JUMPI PUSH2 0xB1F PUSH2 0xAC3 JUMP JUMPDEST JUMPDEST SWAP3 SWAP2 POP POP JUMP JUMPDEST PUSH1 0x0 PUSH2 0xB31 DUP3 PUSH2 0x654 JUMP JUMPDEST SWAP2 POP PUSH2 0xB3C DUP4 PUSH2 0x654 JUMP JUMPDEST SWAP3 POP DUP3 DUP3 SUB SWAP1 POP DUP2 DUP2 GT ISZERO PUSH2 0xB54 JUMPI PUSH2 0xB53 PUSH2 0xAC3 JUMP JUMPDEST JUMPDEST SWAP3 SWAP2 POP POP JUMP JUMPDEST PUSH1 0x0 PUSH2 0xB65 DUP3 PUSH2 0x654 JUMP JUMPDEST SWAP2 POP PUSH32 0xFFFFFFFFFFFFFFFFFFFFFFFFFFFFFFFFFFFFFFFFFFFFFFFFFFFFFFFFFFFFFFFF DUP3 SUB PUSH2 0xB97 JUMPI PUSH2 0xB96 PUSH2 0xAC3 JUMP JUMPDEST JUMPDEST PUSH1 0x1 DUP3 ADD SWAP1 POP SWAP2 SWAP1 POP JUMP JUMPDEST PUSH1 0x0 DUP3 DUP3 MSTORE PUSH1 0x20 DUP3 ADD SWAP1 POP SWAP3 SWAP2 POP POP JUMP JUMPDEST PUSH32 0x50726F766964656420696E646578206F7574206F6620626F756E640000000000 PUSH1 0x0 DUP3 ADD MSTORE POP JUMP JUMPDEST PUSH1 0x0 PUSH2 0xBE9 PUSH1 0x1B DUP4 PUSH2 0xBA2 JUMP JUMPDEST SWAP2 POP PUSH2 0xBF4 DUP3 PUSH2 0xBB3 JUMP JUMPDEST PUSH1 0x20 DUP3 ADD SWAP1 POP SWAP2 SWAP1 POP JUMP JUMPDEST PUSH1 0x0 PUSH1 0x20 DUP3 ADD SWAP1 POP DUP2 DUP2 SUB PUSH1 0x0 DUP4 ADD MSTORE PUSH2 0xC18 DUP2 PUSH2 0xBDC JUMP JUMPDEST SWAP1 POP SWAP2 SWAP1 POP JUMP JUMPDEST PUSH1 0x0 DUP1 PUSH1 0x40 DUP4 DUP6 SUB SLT ISZERO PUSH2 0xC36 JUMPI PUSH2 0xC35 PUSH2 0x692 JUMP JUMPDEST JUMPDEST PUSH1 0x0 PUSH2 0xC44 DUP6 DUP3 DUP7 ADD PUSH2 0x765 JUMP JUMPDEST SWAP3 POP POP PUSH1 0x20 PUSH2 0xC55 DUP6 DUP3 DUP7 ADD PUSH2 0x765 JUMP JUMPDEST SWAP2 POP POP SWAP3 POP SWAP3 SWAP1 POP JUMP JUMPDEST PUSH32 0x4C6F776572626F756E6420616E64205570706572626F756E64206E6F7420636F PUSH1 0x0 DUP3 ADD MSTORE PUSH32 0x7272656374000000000000000000000000000000000000000000000000000000 PUSH1 0x20 DUP3 ADD MSTORE POP JUMP JUMPDEST PUSH1 0x0 PUSH2 0xCBB PUSH1 0x25 DUP4 PUSH2 0xBA2 JUMP JUMPDEST SWAP2 POP PUSH2 0xCC6 DUP3 PUSH2 0xC5F JUMP JUMPDEST PUSH1 0x40 DUP3 ADD SWAP1 POP SWAP2 SWAP1 POP JUMP JUMPDEST PUSH1 0x0 PUSH1 0x20 DUP3 ADD SWAP1 POP DUP2 DUP2 SUB PUSH1 0x0 DUP4 ADD MSTORE PUSH2 0xCEA DUP2 PUSH2 0xCAE JUMP JUMPDEST SWAP1 POP SWAP2 SWAP1 POP JUMP JUMPDEST PUSH1 0x0 DUP2 MLOAD SWAP1 POP SWAP2 SWAP1 POP JUMP JUMPDEST PUSH1 0x0 DUP3 DUP3 MSTORE PUSH1 0x20 DUP3 ADD SWAP1 POP SWAP3 SWAP2 POP POP JUMP JUMPDEST PUSH1 0x0 DUP2 SWAP1 POP PUSH1 0x20 DUP3 ADD SWAP1 POP SWAP2 SWAP1 POP JUMP JUMPDEST PUSH2 0xD26 DUP2 PUSH2 0x654 JUMP JUMPDEST DUP3 MSTORE POP POP JUMP JUMPDEST PUSH1 0x0 PUSH2 0xD38 DUP4 DUP4 PUSH2 0xD1D JUMP JUMPDEST PUSH1 0x20 DUP4 ADD SWAP1 POP SWAP3 SWAP2 POP POP JUMP JUMPDEST PUSH1 0x0 PUSH1 0x20 DUP3 ADD SWAP1 POP SWAP2 SWAP1 POP JUMP JUMPDEST PUSH1 0x0 PUSH2 0xD5C DUP3 PUSH2 0xCF1 JUMP JUMPDEST PUSH2 0xD66 DUP2 DUP6 PUSH2 0xCFC JUMP JUMPDEST SWAP4 POP PUSH2 0xD71 DUP4 PUSH2 0xD0D JUMP JUMPDEST DUP1 PUSH1 0x0 JUMPDEST DUP4 DUP2 LT ISZERO PUSH2 0xDA2 JUMPI DUP2 MLOAD PUSH2 0xD89 DUP9 DUP3 PUSH2 0xD2C JUMP JUMPDEST SWAP8 POP PUSH2 0xD94 DUP4 PUSH2 0xD44 JUMP JUMPDEST SWAP3 POP POP PUSH1 0x1 DUP2 ADD SWAP1 POP PUSH2 0xD75 JUMP JUMPDEST POP DUP6 SWAP4 POP POP POP POP SWAP3 SWAP2 POP POP JUMP JUMPDEST PUSH1 0x0 PUSH1 0x40 DUP3 ADD SWAP1 POP DUP2 DUP2 SUB PUSH1 0x0 DUP4 ADD MSTORE PUSH2 0xDC9 DUP2 DUP6 PUSH2 0xD51 JUMP JUMPDEST SWAP1 POP DUP2 DUP2 SUB PUSH1 0x20 DUP4 ADD MSTORE PUSH2 0xDDD DUP2 DUP5 PUSH2 0xD51 JUMP JUMPDEST SWAP1 POP SWAP4 SWAP3 POP POP POP JUMP INVALID LOG2 PUSH5 0x6970667358 0x22 SLT KECCAK256 EQ 0xA7 SWAP15 0x23 SWAP13 CALLVALUE 0xC3 0xAE PUSH17 0x124D6265C0904D76172544A806BAF14FF0 MSTORE 0x5E SWAP5 SELFDESTRUCT 0xBB 0x25 PUSH5 0x736F6C6343 STOP ADDMOD SGT STOP CALLER "},"methodIdentifiers":{"LIMIT()":"af8214ef","SIZE()":"bdffd282","addLiquidity(uint256)":"51c6590a","balances(uint256)":"4903b0d1","checkUpkeep(bytes)":"6e04ff0d","liquidity()":"1a686502","performUpkeep(bytes)":"4585e33b","withdraw(uint256,uint256[])":"5915d806"}},"storageLayout":{"storage":[{"astId":651,"contract":"contracts/logicBasedAutomation2.sol:BalancerOffChain2","label":"balances","offset":0,"slot":"0","type":"t_array(t_uint256)1000_storage"},{"astId":654,"contract":"contracts/logicBasedAutomation2.sol:BalancerOffChain2","label":"liquidity","offset":0,"slot":"1000","type":"t_uint256"}],"types":{"t_array(t_uint256)1000_storage":{"base":"t_uint256","encoding":"inplace","label":"uint256[1000]","numberOfBytes":"32000"},"t_uint256":{"encoding":"inplace","label":"uint256","numberOfBytes":"32"}}}}}}