{
  "_format": "hh-sol-artifact-1",
  "contractName": "BalancerOnChain0",
  "sourceName": "contracts/logicBasedAutomation0.sol",
  "abi": [
    {
      "inputs": [],
      "stateMutability": "nonpayable",
      "type": "constructor"
    },
    {
      "inputs": [],
      "name": "LIMIT",
      "outputs": [
        {
          "internalType": "uint256",
          "name": "",
          "type": "uint256"
        }
      ],
      "stateMutability": "view",
      "type": "function"
    },
    {
      "inputs": [],
      "name": "SIZE",
      "outputs": [
        {
          "internalType": "uint256",
          "name": "",
          "type": "uint256"
        }
      ],
      "stateMutability": "view",
      "type": "function"
    },
    {
      "inputs": [
        {
          "internalType": "uint256",
          "name": "liq",
          "type": "uint256"
        }
      ],
      "name": "addLiquidity",
      "outputs": [],
      "stateMutability": "nonpayable",
      "type": "function"
    },
    {
      "inputs": [
        {
          "internalType": "uint256",
          "name": "",
          "type": "uint256"
        }
      ],
      "name": "balances",
      "outputs": [
        {
          "internalType": "uint256",
          "name": "",
          "type": "uint256"
        }
      ],
      "stateMutability": "view",
      "type": "function"
    },
    {
      "inputs": [
        {
          "internalType": "bytes",
          "name": "",
          "type": "bytes"
        }
      ],
      "name": "checkUpkeep",
      "outputs": [
        {
          "internalType": "bool",
          "name": "upkeepNeeded",
          "type": "bool"
        },
        {
          "internalType": "bytes",
          "name": "performData",
          "type": "bytes"
        }
      ],
      "stateMutability": "view",
      "type": "function"
    },
    {
      "inputs": [],
      "name": "liquidity",
      "outputs": [
        {
          "internalType": "uint256",
          "name": "",
          "type": "uint256"
        }
      ],
      "stateMutability": "view",
      "type": "function"
    },
    {
      "inputs": [
        {
          "internalType": "bytes",
          "name": "",
          "type": "bytes"
        }
      ],
      "name": "performUpkeep",
      "outputs": [],
      "stateMutability": "nonpayable",
      "type": "function"
    },
    {
      "inputs": [
        {
          "internalType": "uint256",
          "name": "amount",
          "type": "uint256"
        },
        {
          "internalType": "uint256[]",
          "name": "indexes",
          "type": "uint256[]"
        }
      ],
      "name": "withdraw",
      "outputs": [],
      "stateMutability": "nonpayable",
      "type": "function"
    }
  ],
  "bytecode": "0x6080604052620f42406103e85534801561001857600080fd5b5060005b6103e8811015610056576103e86000826103e8811061003e5761003d61005c565b5b0181905550808061004e906100c4565b91505061001c565b5061010c565b7f4e487b7100000000000000000000000000000000000000000000000000000000600052603260045260246000fd5b7f4e487b7100000000000000000000000000000000000000000000000000000000600052601160045260246000fd5b6000819050919050565b60006100cf826100ba565b91507fffffffffffffffffffffffffffffffffffffffffffffffffffffffffffffffff82036101015761010061008b565b5b600182019050919050565b6109438061011b6000396000f3fe608060405234801561001057600080fd5b50600436106100885760003560e01c80635915d8061161005b5780635915d806146101135780636e04ff0d1461012f578063af8214ef14610160578063bdffd2821461017e57610088565b80631a6865021461008d5780634585e33b146100ab5780634903b0d1146100c757806351c6590a146100f7575b600080fd5b61009561019c565b6040516100a291906103d3565b60405180910390f35b6100c560048036038101906100c09190610467565b6101a3565b005b6100e160048036038101906100dc91906104e0565b610238565b6040516100ee91906103d3565b60405180910390f35b610111600480360381019061010c91906104e0565b610254565b005b61012d6004803603810190610128919061065c565b610271565b005b61014960048036038101906101449190610467565b61033a565b604051610157929190610752565b60405180910390f35b6101686103ae565b60405161017591906103d3565b60405180910390f35b6101866103b4565b60405161019391906103d3565b60405180910390f35b6103e85481565b60008060005b6103e8811015610231576000816103e881106101c8576101c7610782565b5b015491506103e882101561021e57816103e86101e491906107e0565b9250826103e860008282546101f991906107e0565b925050819055506103e86000826103e8811061021857610217610782565b5b01819055505b808061022990610814565b9150506101a9565b5050505050565b6000816103e8811061024957600080fd5b016000915090505481565b806103e86000828254610267919061085c565b9250508190555050565b60005b8151811015610335576103e882828151811061029357610292610782565b5b6020026020010151106102db576040517f08c379a00000000000000000000000000000000000000000000000000000000081526004016102d2906108ed565b60405180910390fd5b8260008383815181106102f1576102f0610782565b5b60200260200101516103e8811061030b5761030a610782565b5b01600082825461031b91906107e0565b92505081905550808061032d90610814565b915050610274565b505050565b600060606000915060005b6103e881108015610354575082155b15610391576103e86000826103e8811061037157610370610782565b5b0154101561037e57600192505b808061038990610814565b915050610345565b508160405180602001604052806000815250915091509250929050565b6103e881565b6103e881565b6000819050919050565b6103cd816103ba565b82525050565b60006020820190506103e860008301846103c4565b92915050565b6000604051905090565b600080fd5b600080fd5b600080fd5b600080fd5b600080fd5b60008083601f84011261042757610426610402565b5b8235905067ffffffffffffffff81111561044457610443610407565b5b6020830191508360018202830111156104605761045f61040c565b5b9250929050565b6000806020838503121561047e5761047d6103f8565b5b600083013567ffffffffffffffff81111561049c5761049b6103fd565b5b6104a885828601610411565b92509250509250929050565b6104bd816103ba565b81146104c857600080fd5b50565b6000813590506104da816104b4565b92915050565b6000602082840312156104f6576104f56103f8565b5b6000610504848285016104cb565b91505092915050565b6000601f19601f8301169050919050565b7f4e487b7100000000000000000000000000000000000000000000000000000000600052604160045260246000fd5b6105568261050d565b810181811067ffffffffffffffff821117156105755761057461051e565b5b80604052505050565b60006105886103ee565b9050610594828261054d565b919050565b600067ffffffffffffffff8211156105b4576105b361051e565b5b602082029050602081019050919050565b60006105d86105d384610599565b61057e565b905080838252602082019050602084028301858111156105fb576105fa61040c565b5b835b81811015610624578061061088826104cb565b8452602084019350506020810190506105fd565b5050509392505050565b600082601f83011261064357610642610402565b5b81356106538482602086016105c5565b91505092915050565b60008060408385031215610673576106726103f8565b5b6000610681858286016104cb565b925050602083013567ffffffffffffffff8111156106a2576106a16103fd565b5b6106ae8582860161062e565b9150509250929050565b60008115159050919050565b6106cd816106b8565b82525050565b600081519050919050565b600082825260208201905092915050565b60005b8381101561070d5780820151818401526020810190506106f2565b60008484015250505050565b6000610724826106d3565b61072e81856106de565b935061073e8185602086016106ef565b6107478161050d565b840191505092915050565b600060408201905061076760008301856106c4565b81810360208301526107798184610719565b90509392505050565b7f4e487b7100000000000000000000000000000000000000000000000000000000600052603260045260246000fd5b7f4e487b7100000000000000000000000000000000000000000000000000000000600052601160045260246000fd5b60006107eb826103ba565b91506107f6836103ba565b925082820390508181111561080e5761080d6107b1565b5b92915050565b600061081f826103ba565b91507fffffffffffffffffffffffffffffffffffffffffffffffffffffffffffffffff8203610851576108506107b1565b5b600182019050919050565b6000610867826103ba565b9150610872836103ba565b925082820190508082111561088a576108896107b1565b5b92915050565b600082825260208201905092915050565b7f50726f766964656420696e646578206f7574206f6620626f756e640000000000600082015250565b60006108d7601b83610890565b91506108e2826108a1565b602082019050919050565b60006020820190508181036000830152610906816108ca565b905091905056fea26469706673582212201ecb4a1fde716f32d998cd49ef4ee7227712cae63482986a32f6feff6dbff88b64736f6c63430008130033",
  "linkReferences": {},
  "deployedLinkReferences": {}
}