{
  "_format": "hh-sol-artifact-1",
  "contractName": "BalancerOffChain1",
  "sourceName": "contracts/logicBasedAutomation1.sol",
  "abi": [
    {
      "inputs": [],
      "stateMutability": "nonpayable",
      "type": "constructor"
    },
    {
      "inputs": [],
      "name": "LIMIT",
      "outputs": [
        {
          "internalType": "uint256",
          "name": "",
          "type": "uint256"
        }
      ],
      "stateMutability": "view",
      "type": "function"
    },
    {
      "inputs": [],
      "name": "SIZE",
      "outputs": [
        {
          "internalType": "uint256",
          "name": "",
          "type": "uint256"
        }
      ],
      "stateMutability": "view",
      "type": "function"
    },
    {
      "inputs": [
        {
          "internalType": "uint256",
          "name": "liq",
          "type": "uint256"
        }
      ],
      "name": "addLiquidity",
      "outputs": [],
      "stateMutability": "nonpayable",
      "type": "function"
    },
    {
      "inputs": [
        {
          "internalType": "uint256",
          "name": "",
          "type": "uint256"
        }
      ],
      "name": "balances",
      "outputs": [
        {
          "internalType": "uint256",
          "name": "",
          "type": "uint256"
        }
      ],
      "stateMutability": "view",
      "type": "function"
    },
    {
      "inputs": [
        {
          "internalType": "bytes",
          "name": "checkData",
          "type": "bytes"
        }
      ],
      "name": "checkUpkeep",
      "outputs": [
        {
          "internalType": "bool",
          "name": "upkeepNeeded",
          "type": "bool"
        },
        {
          "internalType": "bytes",
          "name": "performData",
          "type": "bytes"
        }
      ],
      "stateMutability": "view",
      "type": "function"
    },
    {
      "inputs": [],
      "name": "liquidity",
      "outputs": [
        {
          "internalType": "uint256",
          "name": "",
          "type": "uint256"
        }
      ],
      "stateMutability": "view",
      "type": "function"
    },
    {
      "inputs": [
        {
          "internalType": "bytes",
          "name": "performData",
          "type": "bytes"
        }
      ],
      "name": "performUpkeep",
      "outputs": [],
      "stateMutability": "nonpayable",
      "type": "function"
    },
    {
      "inputs": [
        {
          "internalType": "uint256",
          "name": "amount",
          "type": "uint256"
        },
        {
          "internalType": "uint256[]",
          "name": "indexes",
          "type": "uint256[]"
        }
      ],
      "name": "withdraw",
      "outputs": [],
      "stateMutability": "nonpayable",
      "type": "function"
    }
  ],
  "bytecode": "0x6080604052620f42406103e85534801561001857600080fd5b5060005b6103e8811015610056576103e86000826103e8811061003e5761003d61005c565b5b0181905550808061004e906100c4565b91505061001c565b5061010c565b7f4e487b7100000000000000000000000000000000000000000000000000000000600052603260045260246000fd5b7f4e487b7100000000000000000000000000000000000000000000000000000000600052601160045260246000fd5b6000819050919050565b60006100cf826100ba565b91507fffffffffffffffffffffffffffffffffffffffffffffffffffffffffffffffff82036101015761010061008b565b5b600182019050919050565b610e1c8061011b6000396000f3fe608060405234801561001057600080fd5b50600436106100885760003560e01c80635915d8061161005b5780635915d806146101135780636e04ff0d1461012f578063af8214ef14610160578063bdffd2821461017e57610088565b80631a6865021461008d5780634585e33b146100ab5780634903b0d1146100c757806351c6590a146100f7575b600080fd5b61009561019c565b6040516100a2919061066d565b60405180910390f35b6100c560048036038101906100c09190610701565b6101a3565b005b6100e160048036038101906100dc919061077a565b6102a7565b6040516100ee919061066d565b60405180910390f35b610111600480360381019061010c919061077a565b6102c3565b005b61012d600480360381019061012891906108f6565b6102e0565b005b61014960048036038101906101449190610701565b6103a9565b6040516101579291906109ec565b60405180910390f35b610168610648565b604051610175919061066d565b60405180910390f35b61018661064e565b604051610193919061066d565b60405180910390f35b6103e85481565b60008083838101906101b59190610a1c565b915091506000806103e854905060005b8451811015610296578381815181106101e1576101e0610a94565b5b602002602001015160008683815181106101fe576101fd610a94565b5b60200260200101516103e8811061021857610217610a94565b5b01546102249190610af2565b925083818151811061023957610238610a94565b5b60200260200101518261024c9190610b26565b915082600086838151811061026457610263610a94565b5b60200260200101516103e8811061027e5761027d610a94565b5b0181905550808061028e90610b5a565b9150506101c5565b50806103e881905550505050505050565b6000816103e881106102b857600080fd5b016000915090505481565b806103e860008282546102d69190610af2565b9250508190555050565b60005b81518110156103a4576103e882828151811061030257610301610a94565b5b60200260200101511061034a576040517f08c379a000000000000000000000000000000000000000000000000000000000815260040161034190610bff565b60405180910390fd5b8260008383815181106103605761035f610a94565b5b60200260200101516103e8811061037a57610379610a94565b5b01600082825461038a9190610b26565b92505081905550808061039c90610b5a565b9150506102e3565b505050565b6000606060008085858101906103bf9190610c1f565b915091506103e8811080156103d357508082105b610412576040517f08c379a000000000000000000000000000000000000000000000000000000000815260040161040990610cd1565b60405180910390fd5b600080600090505b600184846104289190610b26565b6104329190610af2565b811015610486576103e86000828661044a9190610af2565b6103e8811061045c5761045b610a94565b5b0154101561047357818061046f90610b5a565b9250505b808061047e90610b5a565b91505061041a565b5060008167ffffffffffffffff8111156104a3576104a26107b8565b5b6040519080825280602002602001820160405280156104d15781602001602082028036833780820191505090505b50905060008267ffffffffffffffff8111156104f0576104ef6107b8565b5b60405190808252806020026020018201604052801561051e5781602001602082028036833780820191505090505b50905060009650600080600090505b6001878761053b9190610b26565b6105459190610af2565b811015610616576103e86000828961055d9190610af2565b6103e8811061056f5761056e610a94565b5b01541015610603576001985080876105879190610af2565b84838151811061059a57610599610a94565b5b602002602001018181525050600081886105b49190610af2565b6103e881106105c6576105c5610a94565b5b01546103e86105d59190610b26565b8383815181106105e8576105e7610a94565b5b60200260200101818152505081806105ff90610b5a565b9250505b808061060e90610b5a565b91505061052d565b50828260405160200161062a929190610daf565b60405160208183030381529060405296505050505050509250929050565b6103e881565b6103e881565b6000819050919050565b61066781610654565b82525050565b6000602082019050610682600083018461065e565b92915050565b6000604051905090565b600080fd5b600080fd5b600080fd5b600080fd5b600080fd5b60008083601f8401126106c1576106c061069c565b5b8235905067ffffffffffffffff8111156106de576106dd6106a1565b5b6020830191508360018202830111156106fa576106f96106a6565b5b9250929050565b6000806020838503121561071857610717610692565b5b600083013567ffffffffffffffff81111561073657610735610697565b5b610742858286016106ab565b92509250509250929050565b61075781610654565b811461076257600080fd5b50565b6000813590506107748161074e565b92915050565b6000602082840312156107905761078f610692565b5b600061079e84828501610765565b91505092915050565b6000601f19601f8301169050919050565b7f4e487b7100000000000000000000000000000000000000000000000000000000600052604160045260246000fd5b6107f0826107a7565b810181811067ffffffffffffffff8211171561080f5761080e6107b8565b5b80604052505050565b6000610822610688565b905061082e82826107e7565b919050565b600067ffffffffffffffff82111561084e5761084d6107b8565b5b602082029050602081019050919050565b600061087261086d84610833565b610818565b90508083825260208201905060208402830185811115610895576108946106a6565b5b835b818110156108be57806108aa8882610765565b845260208401935050602081019050610897565b5050509392505050565b600082601f8301126108dd576108dc61069c565b5b81356108ed84826020860161085f565b91505092915050565b6000806040838503121561090d5761090c610692565b5b600061091b85828601610765565b925050602083013567ffffffffffffffff81111561093c5761093b610697565b5b610948858286016108c8565b9150509250929050565b60008115159050919050565b61096781610952565b82525050565b600081519050919050565b600082825260208201905092915050565b60005b838110156109a757808201518184015260208101905061098c565b60008484015250505050565b60006109be8261096d565b6109c88185610978565b93506109d8818560208601610989565b6109e1816107a7565b840191505092915050565b6000604082019050610a01600083018561095e565b8181036020830152610a1381846109b3565b90509392505050565b60008060408385031215610a3357610a32610692565b5b600083013567ffffffffffffffff811115610a5157610a50610697565b5b610a5d858286016108c8565b925050602083013567ffffffffffffffff811115610a7e57610a7d610697565b5b610a8a858286016108c8565b9150509250929050565b7f4e487b7100000000000000000000000000000000000000000000000000000000600052603260045260246000fd5b7f4e487b7100000000000000000000000000000000000000000000000000000000600052601160045260246000fd5b6000610afd82610654565b9150610b0883610654565b9250828201905080821115610b2057610b1f610ac3565b5b92915050565b6000610b3182610654565b9150610b3c83610654565b9250828203905081811115610b5457610b53610ac3565b5b92915050565b6000610b6582610654565b91507fffffffffffffffffffffffffffffffffffffffffffffffffffffffffffffffff8203610b9757610b96610ac3565b5b600182019050919050565b600082825260208201905092915050565b7f50726f766964656420696e646578206f7574206f6620626f756e640000000000600082015250565b6000610be9601b83610ba2565b9150610bf482610bb3565b602082019050919050565b60006020820190508181036000830152610c1881610bdc565b9050919050565b60008060408385031215610c3657610c35610692565b5b6000610c4485828601610765565b9250506020610c5585828601610765565b9150509250929050565b7f4c6f776572626f756e6420616e64205570706572626f756e64206e6f7420636f60008201527f7272656374000000000000000000000000000000000000000000000000000000602082015250565b6000610cbb602583610ba2565b9150610cc682610c5f565b604082019050919050565b60006020820190508181036000830152610cea81610cae565b9050919050565b600081519050919050565b600082825260208201905092915050565b6000819050602082019050919050565b610d2681610654565b82525050565b6000610d388383610d1d565b60208301905092915050565b6000602082019050919050565b6000610d5c82610cf1565b610d668185610cfc565b9350610d7183610d0d565b8060005b83811015610da2578151610d898882610d2c565b9750610d9483610d44565b925050600181019050610d75565b5085935050505092915050565b60006040820190508181036000830152610dc98185610d51565b90508181036020830152610ddd8184610d51565b9050939250505056fea2646970667358221220c118f155ef4a5554b17db469ceca86c41cd0be11524b78aa2200652fd1c69a4f64736f6c63430008130033",
  "linkReferences": {},
  "deployedLinkReferences": {}
}