{
  "_format": "hh-sol-artifact-1",
  "contractName": "UpkeepIDConditionaltest",
  "sourceName": "contracts/registerUpKeep.sol",
  "abi": [
    {
      "inputs": [
        {
          "internalType": "contract LinkTokenInterface",
          "name": "link",
          "type": "address"
        },
        {
          "internalType": "contract AutomationRegistrarInterface",
          "name": "registrar",
          "type": "address"
        }
      ],
      "stateMutability": "nonpayable",
      "type": "constructor"
    },
    {
      "inputs": [],
      "name": "i_link",
      "outputs": [
        {
          "internalType": "contract LinkTokenInterface",
          "name": "",
          "type": "address"
        }
      ],
      "stateMutability": "view",
      "type": "function"
    },
    {
      "inputs": [],
      "name": "i_registrar",
      "outputs": [
        {
          "internalType": "contract AutomationRegistrarInterface",
          "name": "",
          "type": "address"
        }
      ],
      "stateMutability": "view",
      "type": "function"
    },
    {
      "inputs": [
        {
          "internalType": "address",
          "name": "contAdd",
          "type": "address"
        }
      ],
      "name": "registerAndPredictID",
      "outputs": [
        {
          "internalType": "uint256",
          "name": "upkeepID",
          "type": "uint256"
        }
      ],
      "stateMutability": "nonpayable",
      "type": "function"
    },
    {
      "inputs": [
        {
          "internalType": "contract LinkTokenInterface",
          "name": "link",
          "type": "address"
        }
      ],
      "name": "setLink",
      "outputs": [],
      "stateMutability": "nonpayable",
      "type": "function"
    },
    {
      "inputs": [
        {
          "internalType": "contract AutomationRegistrarInterface",
          "name": "registrar",
          "type": "address"
        }
      ],
      "name": "setRegistrar",
      "outputs": [],
      "stateMutability": "nonpayable",
      "type": "function"
    }
  ],
  "bytecode": "0x60806040523480156200001157600080fd5b506040516200117338038062001173833981810160405281019062000037919062000183565b816000806101000a81548173ffffffffffffffffffffffffffffffffffffffff021916908373ffffffffffffffffffffffffffffffffffffffff16021790555080600160006101000a81548173ffffffffffffffffffffffffffffffffffffffff021916908373ffffffffffffffffffffffffffffffffffffffff1602179055505050620001ca565b600080fd5b600073ffffffffffffffffffffffffffffffffffffffff82169050919050565b6000620000f282620000c5565b9050919050565b60006200010682620000e5565b9050919050565b6200011881620000f9565b81146200012457600080fd5b50565b60008151905062000138816200010d565b92915050565b60006200014b82620000e5565b9050919050565b6200015d816200013e565b81146200016957600080fd5b50565b6000815190506200017d8162000152565b92915050565b600080604083850312156200019d576200019c620000c0565b5b6000620001ad8582860162000127565b9250506020620001c0858286016200016c565b9150509250929050565b610f9980620001da6000396000f3fe608060405234801561001057600080fd5b50600436106100575760003560e01c8063442b12781461005c5780637d253aff1461007a57806394547fcc14610098578063eefefcda146100b4578063faab9d39146100e4575b600080fd5b610064610100565b604051610071919061082d565b60405180910390f35b610082610126565b60405161008f9190610869565b60405180910390f35b6100b260048036038101906100ad91906108d9565b61014a565b005b6100ce60048036038101906100c99190610932565b61018d565b6040516100db9190610978565b60405180910390f35b6100fe60048036038101906100f991906109d1565b61076a565b005b600160009054906101000a900473ffffffffffffffffffffffffffffffffffffffff1681565b60008054906101000a900473ffffffffffffffffffffffffffffffffffffffff1681565b806000806101000a81548173ffffffffffffffffffffffffffffffffffffffff021916908373ffffffffffffffffffffffffffffffffffffffff16021790555050565b6000806040518061014001604052806040518060400160405280600481526020017f746573740000000000000000000000000000000000000000000000000000000081525081526020016040518060400160405280600281526020017f307800000000000000000000000000000000000000000000000000000000000081525081526020018473ffffffffffffffffffffffffffffffffffffffff1681526020016207a12063ffffffff1681526020013373ffffffffffffffffffffffffffffffffffffffff168152602001600060ff1681526020016040518060400160405280600281526020017f307800000000000000000000000000000000000000000000000000000000000081525081526020016040518060400160405280600281526020017f307800000000000000000000000000000000000000000000000000000000000081525081526020016040518060400160405280600281526020017f30780000000000000000000000000000000000000000000000000000000000008152508152602001670de0b6b3a76400006bffffffffffffffffffffffff1681525090508061012001516bffffffffffffffffffffffff1660008054906101000a900473ffffffffffffffffffffffffffffffffffffffff1673ffffffffffffffffffffffffffffffffffffffff1663dd62ed3e33306040518363ffffffff1660e01b815260040161039f929190610a0d565b602060405180830381865afa1580156103bc573d6000803e3d6000fd5b505050506040513d601f19601f820116820180604052508101906103e09190610a62565b1015610421576040517f08c379a000000000000000000000000000000000000000000000000000000000815260040161041890610aec565b60405180910390fd5b8061012001516bffffffffffffffffffffffff1660008054906101000a900473ffffffffffffffffffffffffffffffffffffffff1673ffffffffffffffffffffffffffffffffffffffff166370a08231336040518263ffffffff1660e01b815260040161048e9190610b0c565b602060405180830381865afa1580156104ab573d6000803e3d6000fd5b505050506040513d601f19601f820116820180604052508101906104cf9190610a62565b1015610510576040517f08c379a000000000000000000000000000000000000000000000000000000000815260040161050790610b73565b60405180910390fd5b60008054906101000a900473ffffffffffffffffffffffffffffffffffffffff1673ffffffffffffffffffffffffffffffffffffffff166323b872dd33308461012001516040518463ffffffff1660e01b815260040161057293929190610bdc565b6020604051808303816000875af1158015610591573d6000803e3d6000fd5b505050506040513d601f19601f820116820180604052508101906105b59190610c4b565b5060008054906101000a900473ffffffffffffffffffffffffffffffffffffffff1673ffffffffffffffffffffffffffffffffffffffff1663095ea7b3600160009054906101000a900473ffffffffffffffffffffffffffffffffffffffff168361012001516040518363ffffffff1660e01b8152600401610638929190610c78565b6020604051808303816000875af1158015610657573d6000803e3d6000fd5b505050506040513d601f19601f8201168201806040525081019061067b9190610c4b565b50600160009054906101000a900473ffffffffffffffffffffffffffffffffffffffff1673ffffffffffffffffffffffffffffffffffffffff16633f678e11826040518263ffffffff1660e01b81526004016106d79190610ed5565b6020604051808303816000875af11580156106f6573d6000803e3d6000fd5b505050506040513d601f19601f8201168201806040525081019061071a9190610a62565b91506000821461072a5750610765565b6040517f08c379a000000000000000000000000000000000000000000000000000000000815260040161075c90610f43565b60405180910390fd5b919050565b80600160006101000a81548173ffffffffffffffffffffffffffffffffffffffff021916908373ffffffffffffffffffffffffffffffffffffffff16021790555050565b600073ffffffffffffffffffffffffffffffffffffffff82169050919050565b6000819050919050565b60006107f36107ee6107e9846107ae565b6107ce565b6107ae565b9050919050565b6000610805826107d8565b9050919050565b6000610817826107fa565b9050919050565b6108278161080c565b82525050565b6000602082019050610842600083018461081e565b92915050565b6000610853826107fa565b9050919050565b61086381610848565b82525050565b600060208201905061087e600083018461085a565b92915050565b600080fd5b6000610894826107ae565b9050919050565b60006108a682610889565b9050919050565b6108b68161089b565b81146108c157600080fd5b50565b6000813590506108d3816108ad565b92915050565b6000602082840312156108ef576108ee610884565b5b60006108fd848285016108c4565b91505092915050565b61090f81610889565b811461091a57600080fd5b50565b60008135905061092c81610906565b92915050565b60006020828403121561094857610947610884565b5b60006109568482850161091d565b91505092915050565b6000819050919050565b6109728161095f565b82525050565b600060208201905061098d6000830184610969565b92915050565b600061099e82610889565b9050919050565b6109ae81610993565b81146109b957600080fd5b50565b6000813590506109cb816109a5565b92915050565b6000602082840312156109e7576109e6610884565b5b60006109f5848285016109bc565b91505092915050565b610a0781610889565b82525050565b6000604082019050610a2260008301856109fe565b610a2f60208301846109fe565b9392505050565b610a3f8161095f565b8114610a4a57600080fd5b50565b600081519050610a5c81610a36565b92915050565b600060208284031215610a7857610a77610884565b5b6000610a8684828501610a4d565b91505092915050565b600082825260208201905092915050565b7f7573657220616c6c6f77616e6365206973206e6f7420656e6f75676800000000600082015250565b6000610ad6601c83610a8f565b9150610ae182610aa0565b602082019050919050565b60006020820190508181036000830152610b0581610ac9565b9050919050565b6000602082019050610b2160008301846109fe565b92915050565b7f757365722062616c616e6365206973206e6f7420656e6f756768000000000000600082015250565b6000610b5d601a83610a8f565b9150610b6882610b27565b602082019050919050565b60006020820190508181036000830152610b8c81610b50565b9050919050565b60006bffffffffffffffffffffffff82169050919050565b6000610bc6610bc1610bbc84610b93565b6107ce565b61095f565b9050919050565b610bd681610bab565b82525050565b6000606082019050610bf160008301866109fe565b610bfe60208301856109fe565b610c0b6040830184610bcd565b949350505050565b60008115159050919050565b610c2881610c13565b8114610c3357600080fd5b50565b600081519050610c4581610c1f565b92915050565b600060208284031215610c6157610c60610884565b5b6000610c6f84828501610c36565b91505092915050565b6000604082019050610c8d60008301856109fe565b610c9a6020830184610bcd565b9392505050565b600081519050919050565b600082825260208201905092915050565b60005b83811015610cdb578082015181840152602081019050610cc0565b60008484015250505050565b6000601f19601f8301169050919050565b6000610d0382610ca1565b610d0d8185610cac565b9350610d1d818560208601610cbd565b610d2681610ce7565b840191505092915050565b600081519050919050565b600082825260208201905092915050565b6000610d5882610d31565b610d628185610d3c565b9350610d72818560208601610cbd565b610d7b81610ce7565b840191505092915050565b610d8f81610889565b82525050565b600063ffffffff82169050919050565b610dae81610d95565b82525050565b600060ff82169050919050565b610dca81610db4565b82525050565b610dd981610b93565b82525050565b6000610140830160008301518482036000860152610dfd8282610cf8565b91505060208301518482036020860152610e178282610d4d565b9150506040830151610e2c6040860182610d86565b506060830151610e3f6060860182610da5565b506080830151610e526080860182610d86565b5060a0830151610e6560a0860182610dc1565b5060c083015184820360c0860152610e7d8282610d4d565b91505060e083015184820360e0860152610e978282610d4d565b915050610100830151848203610100860152610eb38282610d4d565b915050610120830151610eca610120860182610dd0565b508091505092915050565b60006020820190508181036000830152610eef8184610ddf565b905092915050565b7f6175746f2d617070726f76652064697361626c65640000000000000000000000600082015250565b6000610f2d601583610a8f565b9150610f3882610ef7565b602082019050919050565b60006020820190508181036000830152610f5c81610f20565b905091905056fea264697066735822122005bd0a170090c73996b5957478461108f3d578689191860baaf2f853da97e90164736f6c63430008130033",
  "linkReferences": {},
  "deployedLinkReferences": {}
}