{
  "_format": "hh-sol-artifact-1",
  "contractName": "UpkeepIDConditionaltest",
  "sourceName": "contracts/registerUpKeep.sol",
  "abi": [
    {
      "inputs": [
        {
          "internalType": "contract LinkTokenInterface",
          "name": "link",
          "type": "address"
        },
        {
          "internalType": "contract AutomationRegistrarInterface",
          "name": "registrar",
          "type": "address"
        }
      ],
      "stateMutability": "nonpayable",
      "type": "constructor"
    },
    {
      "inputs": [],
      "name": "i_link",
      "outputs": [
        {
          "internalType": "contract LinkTokenInterface",
          "name": "",
          "type": "address"
        }
      ],
      "stateMutability": "view",
      "type": "function"
    },
    {
      "inputs": [],
      "name": "i_registrar",
      "outputs": [
        {
          "internalType": "contract AutomationRegistrarInterface",
          "name": "",
          "type": "address"
        }
      ],
      "stateMutability": "view",
      "type": "function"
    },
    {
      "inputs": [
        {
          "internalType": "address",
          "name": "contAdd",
          "type": "address"
        },
        {
          "internalType": "uint96",
          "name": "amount",
          "type": "uint96"
        },
        {
          "internalType": "uint32",
          "name": "gasLimit",
          "type": "uint32"
        },
        {
          "internalType": "string",
          "name": "name",
          "type": "string"
        }
      ],
      "name": "registerAndPredictID",
      "outputs": [
        {
          "internalType": "uint256",
          "name": "upkeepID",
          "type": "uint256"
        }
      ],
      "stateMutability": "nonpayable",
      "type": "function"
    },
    {
      "inputs": [
        {
          "internalType": "contract LinkTokenInterface",
          "name": "link",
          "type": "address"
        }
      ],
      "name": "setLink",
      "outputs": [],
      "stateMutability": "nonpayable",
      "type": "function"
    },
    {
      "inputs": [
        {
          "internalType": "contract AutomationRegistrarInterface",
          "name": "registrar",
          "type": "address"
        }
      ],
      "name": "setRegistrar",
      "outputs": [],
      "stateMutability": "nonpayable",
      "type": "function"
    }
  ],
  "bytecode": "0x60806040523480156200001157600080fd5b506040516200132838038062001328833981810160405281019062000037919062000183565b816000806101000a81548173ffffffffffffffffffffffffffffffffffffffff021916908373ffffffffffffffffffffffffffffffffffffffff16021790555080600160006101000a81548173ffffffffffffffffffffffffffffffffffffffff021916908373ffffffffffffffffffffffffffffffffffffffff1602179055505050620001ca565b600080fd5b600073ffffffffffffffffffffffffffffffffffffffff82169050919050565b6000620000f282620000c5565b9050919050565b60006200010682620000e5565b9050919050565b6200011881620000f9565b81146200012457600080fd5b50565b60008151905062000138816200010d565b92915050565b60006200014b82620000e5565b9050919050565b6200015d816200013e565b81146200016957600080fd5b50565b6000815190506200017d8162000152565b92915050565b600080604083850312156200019d576200019c620000c0565b5b6000620001ad8582860162000127565b9250506020620001c0858286016200016c565b9150509250929050565b61114e80620001da6000396000f3fe608060405234801561001057600080fd5b50600436106100575760003560e01c8063442b12781461005c5780637d253aff1461007a57806394547fcc14610098578063f8edb310146100b4578063faab9d39146100e4575b600080fd5b610064610100565b60405161007191906107f0565b60405180910390f35b610082610126565b60405161008f919061082c565b60405180910390f35b6100b260048036038101906100ad91906108ab565b61014a565b005b6100ce60048036038101906100c99190610aca565b61018d565b6040516100db9190610b66565b60405180910390f35b6100fe60048036038101906100f99190610bbf565b61072d565b005b600160009054906101000a900473ffffffffffffffffffffffffffffffffffffffff1681565b60008054906101000a900473ffffffffffffffffffffffffffffffffffffffff1681565b806000806101000a81548173ffffffffffffffffffffffffffffffffffffffff021916908373ffffffffffffffffffffffffffffffffffffffff16021790555050565b6000806040518061014001604052808481526020016040518060400160405280600281526020017f307800000000000000000000000000000000000000000000000000000000000081525081526020018773ffffffffffffffffffffffffffffffffffffffff1681526020018563ffffffff1681526020013373ffffffffffffffffffffffffffffffffffffffff168152602001600060ff1681526020016040518060400160405280600281526020017f307800000000000000000000000000000000000000000000000000000000000081525081526020016040518060400160405280600281526020017f307800000000000000000000000000000000000000000000000000000000000081525081526020016040518060400160405280600281526020017f30780000000000000000000000000000000000000000000000000000000000008152508152602001866bffffffffffffffffffffffff1681525090508061012001516bffffffffffffffffffffffff1660008054906101000a900473ffffffffffffffffffffffffffffffffffffffff1673ffffffffffffffffffffffffffffffffffffffff1663dd62ed3e33306040518363ffffffff1660e01b815260040161035f929190610bfb565b602060405180830381865afa15801561037c573d6000803e3d6000fd5b505050506040513d601f19601f820116820180604052508101906103a09190610c50565b10156103e1576040517f08c379a00000000000000000000000000000000000000000000000000000000081526004016103d890610cda565b60405180910390fd5b8061012001516bffffffffffffffffffffffff1660008054906101000a900473ffffffffffffffffffffffffffffffffffffffff1673ffffffffffffffffffffffffffffffffffffffff166370a08231336040518263ffffffff1660e01b815260040161044e9190610cfa565b602060405180830381865afa15801561046b573d6000803e3d6000fd5b505050506040513d601f19601f8201168201806040525081019061048f9190610c50565b10156104d0576040517f08c379a00000000000000000000000000000000000000000000000000000000081526004016104c790610d61565b60405180910390fd5b60008054906101000a900473ffffffffffffffffffffffffffffffffffffffff1673ffffffffffffffffffffffffffffffffffffffff166323b872dd33308461012001516040518463ffffffff1660e01b815260040161053293929190610db2565b6020604051808303816000875af1158015610551573d6000803e3d6000fd5b505050506040513d601f19601f820116820180604052508101906105759190610e21565b5060008054906101000a900473ffffffffffffffffffffffffffffffffffffffff1673ffffffffffffffffffffffffffffffffffffffff1663095ea7b3600160009054906101000a900473ffffffffffffffffffffffffffffffffffffffff168361012001516040518363ffffffff1660e01b81526004016105f8929190610e4e565b6020604051808303816000875af1158015610617573d6000803e3d6000fd5b505050506040513d601f19601f8201168201806040525081019061063b9190610e21565b50600160009054906101000a900473ffffffffffffffffffffffffffffffffffffffff1673ffffffffffffffffffffffffffffffffffffffff16633f678e11826040518263ffffffff1660e01b8152600401610697919061108a565b6020604051808303816000875af11580156106b6573d6000803e3d6000fd5b505050506040513d601f19601f820116820180604052508101906106da9190610c50565b9150600082146106ea5750610725565b6040517f08c379a000000000000000000000000000000000000000000000000000000000815260040161071c906110f8565b60405180910390fd5b949350505050565b80600160006101000a81548173ffffffffffffffffffffffffffffffffffffffff021916908373ffffffffffffffffffffffffffffffffffffffff16021790555050565b600073ffffffffffffffffffffffffffffffffffffffff82169050919050565b6000819050919050565b60006107b66107b16107ac84610771565b610791565b610771565b9050919050565b60006107c88261079b565b9050919050565b60006107da826107bd565b9050919050565b6107ea816107cf565b82525050565b600060208201905061080560008301846107e1565b92915050565b6000610816826107bd565b9050919050565b6108268161080b565b82525050565b6000602082019050610841600083018461081d565b92915050565b6000604051905090565b600080fd5b600080fd5b600061086682610771565b9050919050565b60006108788261085b565b9050919050565b6108888161086d565b811461089357600080fd5b50565b6000813590506108a58161087f565b92915050565b6000602082840312156108c1576108c0610851565b5b60006108cf84828501610896565b91505092915050565b6108e18161085b565b81146108ec57600080fd5b50565b6000813590506108fe816108d8565b92915050565b60006bffffffffffffffffffffffff82169050919050565b61092581610904565b811461093057600080fd5b50565b6000813590506109428161091c565b92915050565b600063ffffffff82169050919050565b61096181610948565b811461096c57600080fd5b50565b60008135905061097e81610958565b92915050565b600080fd5b600080fd5b6000601f19601f8301169050919050565b7f4e487b7100000000000000000000000000000000000000000000000000000000600052604160045260246000fd5b6109d78261098e565b810181811067ffffffffffffffff821117156109f6576109f561099f565b5b80604052505050565b6000610a09610847565b9050610a1582826109ce565b919050565b600067ffffffffffffffff821115610a3557610a3461099f565b5b610a3e8261098e565b9050602081019050919050565b82818337600083830152505050565b6000610a6d610a6884610a1a565b6109ff565b905082815260208101848484011115610a8957610a88610989565b5b610a94848285610a4b565b509392505050565b600082601f830112610ab157610ab0610984565b5b8135610ac1848260208601610a5a565b91505092915050565b60008060008060808587031215610ae457610ae3610851565b5b6000610af2878288016108ef565b9450506020610b0387828801610933565b9350506040610b148782880161096f565b925050606085013567ffffffffffffffff811115610b3557610b34610856565b5b610b4187828801610a9c565b91505092959194509250565b6000819050919050565b610b6081610b4d565b82525050565b6000602082019050610b7b6000830184610b57565b92915050565b6000610b8c8261085b565b9050919050565b610b9c81610b81565b8114610ba757600080fd5b50565b600081359050610bb981610b93565b92915050565b600060208284031215610bd557610bd4610851565b5b6000610be384828501610baa565b91505092915050565b610bf58161085b565b82525050565b6000604082019050610c106000830185610bec565b610c1d6020830184610bec565b9392505050565b610c2d81610b4d565b8114610c3857600080fd5b50565b600081519050610c4a81610c24565b92915050565b600060208284031215610c6657610c65610851565b5b6000610c7484828501610c3b565b91505092915050565b600082825260208201905092915050565b7f7573657220616c6c6f77616e6365206973206e6f7420656e6f75676800000000600082015250565b6000610cc4601c83610c7d565b9150610ccf82610c8e565b602082019050919050565b60006020820190508181036000830152610cf381610cb7565b9050919050565b6000602082019050610d0f6000830184610bec565b92915050565b7f757365722062616c616e6365206973206e6f7420656e6f756768000000000000600082015250565b6000610d4b601a83610c7d565b9150610d5682610d15565b602082019050919050565b60006020820190508181036000830152610d7a81610d3e565b9050919050565b6000610d9c610d97610d9284610904565b610791565b610b4d565b9050919050565b610dac81610d81565b82525050565b6000606082019050610dc76000830186610bec565b610dd46020830185610bec565b610de16040830184610da3565b949350505050565b60008115159050919050565b610dfe81610de9565b8114610e0957600080fd5b50565b600081519050610e1b81610df5565b92915050565b600060208284031215610e3757610e36610851565b5b6000610e4584828501610e0c565b91505092915050565b6000604082019050610e636000830185610bec565b610e706020830184610da3565b9392505050565b600081519050919050565b600082825260208201905092915050565b60005b83811015610eb1578082015181840152602081019050610e96565b60008484015250505050565b6000610ec882610e77565b610ed28185610e82565b9350610ee2818560208601610e93565b610eeb8161098e565b840191505092915050565b600081519050919050565b600082825260208201905092915050565b6000610f1d82610ef6565b610f278185610f01565b9350610f37818560208601610e93565b610f408161098e565b840191505092915050565b610f548161085b565b82525050565b610f6381610948565b82525050565b600060ff82169050919050565b610f7f81610f69565b82525050565b610f8e81610904565b82525050565b6000610140830160008301518482036000860152610fb28282610ebd565b91505060208301518482036020860152610fcc8282610f12565b9150506040830151610fe16040860182610f4b565b506060830151610ff46060860182610f5a565b5060808301516110076080860182610f4b565b5060a083015161101a60a0860182610f76565b5060c083015184820360c08601526110328282610f12565b91505060e083015184820360e086015261104c8282610f12565b9150506101008301518482036101008601526110688282610f12565b91505061012083015161107f610120860182610f85565b508091505092915050565b600060208201905081810360008301526110a48184610f94565b905092915050565b7f6175746f2d617070726f76652064697361626c65640000000000000000000000600082015250565b60006110e2601583610c7d565b91506110ed826110ac565b602082019050919050565b60006020820190508181036000830152611111816110d5565b905091905056fea2646970667358221220e3b8dedc4112379a9ce97198b4f393c1ad8085dd5742c12a1e69a6bfe1fa756464736f6c63430008130033",
  "linkReferences": {},
  "deployedLinkReferences": {}
}